{
  "_format": "hh-sol-artifact-1",
  "contractName": "YourContract",
  "sourceName": "contracts/YourContract.sol",
  "abi": [
    {
      "inputs": [],
      "stateMutability": "payable",
      "type": "constructor"
    },
    {
      "anonymous": false,
      "inputs": [
        {
          "indexed": false,
          "internalType": "address",
          "name": "sender",
          "type": "address"
        },
        {
          "indexed": false,
          "internalType": "string",
          "name": "purpose",
          "type": "string"
        }
      ],
      "name": "SetPurpose",
      "type": "event"
    },
    {
      "stateMutability": "payable",
      "type": "fallback"
    },
    {
      "inputs": [],
      "name": "purpose",
      "outputs": [
        {
          "internalType": "string",
          "name": "",
          "type": "string"
        }
      ],
      "stateMutability": "view",
      "type": "function"
    },
    {
      "inputs": [
        {
          "internalType": "string",
          "name": "newPurpose",
          "type": "string"
        }
      ],
      "name": "setPurpose",
      "outputs": [],
      "stateMutability": "nonpayable",
      "type": "function"
    },
    {
      "stateMutability": "payable",
      "type": "receive"
    }
  ],
  "bytecode": "0x60c0604052601c60808190527f4275696c64696e6720556e73746f707061626c6520417070732121210000000060a090815261003e9160009190610044565b50610118565b828054610050906100dd565b90600052602060002090601f01602090048101928261007257600085556100b8565b82601f1061008b57805160ff19168380011785556100b8565b828001600101855582156100b8579182015b828111156100b857825182559160200191906001019061009d565b506100c49291506100c8565b5090565b5b808211156100c457600081556001016100c9565b600181811c908216806100f157607f821691505b6020821081141561011257634e487b7160e01b600052602260045260246000fd5b50919050565b6105ab806101276000396000f3fe60806040526004361061002a5760003560e01c806370740aab14610033578063eb68757f1461005e57005b3661003157005b005b34801561003f57600080fd5b5061004861007e565b604051610055919061050a565b60405180910390f35b34801561006a57600080fd5b5061003161007936600461031e565b61010c565b6000805461008b90610524565b80601f01602080910402602001604051908101604052809291908181526020018280546100b790610524565b80156101045780601f106100d957610100808354040283529160200191610104565b820191906000526020600020905b8154815290600101906020018083116100e757829003601f168201915b505050505081565b805161011f906000906020840190610285565b506101db336040518060400160405280600e81526020016d73657420707572706f736520746f60901b8152506000805461015890610524565b80601f016020809104026020016040519081016040528092919081815260200182805461018490610524565b80156101d15780601f106101a6576101008083540402835291602001916101d1565b820191906000526020600020905b8154815290600101906020018083116101b457829003601f168201915b5050505050610218565b7f6ea5d6383a120235c7728a9a6751672a8ac068e4ed34dcca2ee444182c1812de33600060405161020d929190610453565b60405180910390a150565b61025f83838360405160240161023093929190610413565b60408051601f198184030181529190526020810180516001600160e01b031663fb77226560e01b179052610264565b505050565b80516a636f6e736f6c652e6c6f67602083016000808483855afa5050505050565b82805461029190610524565b90600052602060002090601f0160209004810192826102b357600085556102f9565b82601f106102cc57805160ff19168380011785556102f9565b828001600101855582156102f9579182015b828111156102f95782518255916020019190600101906102de565b50610305929150610309565b5090565b5b80821115610305576000815560010161030a565b60006020828403121561032f578081fd5b813567ffffffffffffffff80821115610346578283fd5b818401915084601f830112610359578283fd5b81358181111561036b5761036b61055f565b604051601f8201601f19908116603f011681019083821181831017156103935761039361055f565b816040528281528760208487010111156103ab578586fd5b826020860160208301379182016020019490945295945050505050565b60008151808452815b818110156103ed576020818501810151868301820152016103d1565b818111156103fe5782602083870101525b50601f01601f19169290920160200192915050565b6001600160a01b0384168152606060208201819052600090610437908301856103c8565b828103604084015261044981856103c8565b9695505050505050565b60018060a01b03831681526000602060408184015281845483600182811c91508083168061048257607f831692505b8583108114156104a057634e487b7160e01b87526022600452602487fd5b60408801839052606088018180156104bf57600181146104d0576104fa565b60ff198616825287820196506104fa565b60008b815260209020895b868110156104f4578154848201529085019089016104db565b83019750505b50949a9950505050505050505050565b60208152600061051d60208301846103c8565b9392505050565b600181811c9082168061053857607f821691505b6020821081141561055957634e487b7160e01b600052602260045260246000fd5b50919050565b634e487b7160e01b600052604160045260246000fdfea26469706673582212205c38e00b0a1d9dd3db091acbec1b06c884f3cef51ccb871a8ae239166095b80264736f6c63430008040033",
  "linkReferences": {},
  "deployedLinkReferences": {}
}